:100000000C945C000C9479000C9479000C947900A9
:100010000C9479000C9479000C9479000C9479007C
:100020000C9479000C9479000C9479000C9479006C
:100030000C9479000C9479000C9479000C9479005C
:100040000C94A9010C9479000C9479000C9479001B
:100050000C9479000C9479000C9479000C9479003C
:100060000C9479000C947900000000080002010053
:100070000003040700000000000000000000000072
:10008000250028002B0000000000240027002A0083
:10009000040404040404040402020202020203032E
:1000A0000303030301020408102040800102040836
:1000B000102001020408102011241FBECFEFD8E049
:1000C000DEBFCDBF11E0A0E0B1E0E0E9F5E002C0A5
:1000D00005900D92AA31B107D9F721E0AAE1B1E06C
:1000E00001C01D92A932B207E1F70E94F3010C94FE
:1000F000C6020C94000090E0FC01EC55FF4F2491E7
:1001000080579F4FFC018491882399F090E0880FDD
:10011000991FFC01EA57FF4FA591B491FC01E458E7
:10012000FF4F859194918FB7F894EC91E22BEC936B
:100130008FBF089590E0FC01E859FF4F2491FC0126
:10014000EC55FF4F3491FC01E057FF4FE491EE2353
:10015000C9F0222339F0233001F1A8F4213019F13C
:10016000223029F1F0E0EE0FFF1FE458FF4FA59178
:10017000B4918FB7F894EC91611126C030953E236D
:100180003C938FBF08952730A9F02830C9F0243060
:1001900049F7809180008F7D03C0809180008F7728
:1001A00080938000DFCF84B58F7784BDDBCF84B5AB
:1001B0008F7DFBCF8091B0008F778093B000D2CF3E
:1001C0008091B0008F7DF9CF3E2BDACF3FB7F89406
:1001D00080911B0190911C01A0911D01B0911E0105
:1001E00026B5A89B05C02F3F19F00196A11DB11D92
:1001F0003FBFBA2FA92F982F8827BC01CD01620FCE
:10020000711D811D911D42E0660F771F881F991F88
:100210004A95D1F708954F925F926F927F928F9295
:100220009F92AF92BF92DF92EF92FF920F931F9334
:10023000CF93DF938C01FB01EE0FFF1FE65FFE4FB4
:10024000D08060E08D2D0E949A0022E1E22E21E014
:10025000F22ED0E0C0E0F801E050FF4F008110E046
:10026000F7018081F2E0EF0EF11CB8010C2E02C004
:10027000759567950A94E2F7609570956170772798
:100280000E949A002196C430D10551F70E94E600E1
:100290002B013C0185E0882E912CA12CB12C0E94D1
:1002A000E6006419750986099709683E734081055F
:1002B0009105A8F381E0881A9108A108B10898EE89
:1002C000490E93E0591E611C711C81149104A10414
:1002D000B10429F761E08D2DDF91CF911F910F912E
:1002E000FF90EF90DF90BF90AF909F908F907F90A6
:1002F0006F905F904F900C949A00EF92FF920F9343
:100300001F93CF93DF93C3E0D0E00AE010E00097A3
:1003100061F463E070E090E080E0DF91CF911F91A5
:100320000F91FF90EF900C940B011816190644F4EE
:10033000B8010E949E027B01BE010E940B01C70111
:10034000219798F7DF91CF911F910F91FF90EF9038
:1003500008951F920F920FB60F9211242F933F937F
:100360008F939F93AF93BF9380911F019091200132
:10037000A0912101B091220130911A0123E0230FB5
:100380002D3758F50196A11DB11D20931A018093B8
:100390001F0190932001A0932101B093220180912D
:1003A0001B0190911C01A0911D01B0911E010196AD
:1003B000A11DB11D80931B0190931C01A0931D01F1
:1003C000B0931E01BF91AF919F918F913F912F915B
:1003D0000F900FBE0F901F90189526E8230F0296DE
:1003E000A11DB11DD2CF789484B5826084BD84B53F
:1003F000816084BD85B5826085BD85B5816085BD20
:1004000080916E00816080936E00109281008091D7
:10041000810082608093810080918100816080935F
:100420008100809180008160809380008091B10084
:1004300084608093B1008091B00081608093B000AF
:1004400080917A00846080937A0080917A00826043
:1004500080937A0080917A00816080937A00809105
:100460007A00806880937A001092C10086E00E9432
:100470007B0087E00E947B0088E00E947B0089E08F
:100480000E947B0085E00E947B0084E00E947B004C
:1004900083E00E947B0082E00E947B0061E085E0B7
:1004A0000E949A0061E084E00E949A0061E083E08B
:1004B0000E949A0061E082E00E949A0000E010E051
:1004C0002FB7F89480911F0190912001A0912101F4
:1004D000B09122012FBF40912501509126016091DA
:1004E0002701709128016C017D01C41AD50AE60A22
:1004F000F70AB701A601C0912301D0912401443627
:10050000510561057105B0F0809325019093260196
:10051000A0932701B0932801CE010E947D0121966E
:10052000D0932401C09323010115110549F20E94C3
:100530000000C6CFCE010E947D01F6CF97FB072EAB
:1005400016F4009407D077FD09D00E94B20207FC90
:1005500005D03EF4909581959F4F089570956195D3
:100560007F4F0895AA1BBB1B51E107C0AA1FBB1FE9
:10057000A617B70710F0A61BB70B881F991F5A952F
:10058000A9F780959095BC01CD010895F894FFCF0F
:10059000FFFEFDFCFBFAF9F8F7F605000400030086
:0A05A0000200060007000800090031
:00000001FF
